{
  "_format": "hh-sol-artifact-1",
  "contractName": "ShippingContract",
  "sourceName": "contracts/Shipping.sol",
  "abi": [
    {
      "anonymous": false,
      "inputs": [
        {
          "indexed": true,
          "internalType": "uint256",
          "name": "shipmentId",
          "type": "uint256"
        }
      ],
      "name": "DeliveryConfirmed",
      "type": "event"
    },
    {
      "anonymous": false,
      "inputs": [
        {
          "indexed": true,
          "internalType": "uint256",
          "name": "shipmentId",
          "type": "uint256"
        }
      ],
      "name": "ShipmentCancelled",
      "type": "event"
    },
    {
      "anonymous": false,
      "inputs": [
        {
          "indexed": true,
          "internalType": "uint256",
          "name": "shipmentId",
          "type": "uint256"
        },
        {
          "indexed": true,
          "internalType": "address",
          "name": "seller",
          "type": "address"
        },
        {
          "indexed": false,
          "internalType": "address",
          "name": "buyer",
          "type": "address"
        }
      ],
      "name": "ShipmentCreated",
      "type": "event"
    },
    {
      "anonymous": false,
      "inputs": [
        {
          "indexed": true,
          "internalType": "uint256",
          "name": "shipmentId",
          "type": "uint256"
        },
        {
          "indexed": false,
          "internalType": "enum ShippingContract.ShipmentStatus",
          "name": "status",
          "type": "uint8"
        }
      ],
      "name": "StatusUpdated",
      "type": "event"
    },
    {
      "inputs": [
        {
          "internalType": "uint256",
          "name": "shipmentId",
          "type": "uint256"
        }
      ],
      "name": "cancelShipment",
      "outputs": [],
      "stateMutability": "nonpayable",
      "type": "function"
    },
    {
      "inputs": [
        {
          "internalType": "uint256",
          "name": "shipmentId",
          "type": "uint256"
        }
      ],
      "name": "confirmDelivery",
      "outputs": [],
      "stateMutability": "nonpayable",
      "type": "function"
    },
    {
      "inputs": [
        {
          "internalType": "address",
          "name": "_buyer",
          "type": "address"
        },
        {
          "internalType": "address",
          "name": "_courier",
          "type": "address"
        },
        {
          "internalType": "uint256",
          "name": "_deliveryPrice",
          "type": "uint256"
        }
      ],
      "name": "createShipment",
      "outputs": [],
      "stateMutability": "payable",
      "type": "function"
    },
    {
      "inputs": [
        {
          "internalType": "uint256",
          "name": "shipmentId",
          "type": "uint256"
        }
      ],
      "name": "getShipment",
      "outputs": [
        {
          "components": [
            {
              "internalType": "address",
              "name": "seller",
              "type": "address"
            },
            {
              "internalType": "address",
              "name": "buyer",
              "type": "address"
            },
            {
              "internalType": "address",
              "name": "courier",
              "type": "address"
            },
            {
              "internalType": "uint256",
              "name": "creationTime",
              "type": "uint256"
            },
            {
              "internalType": "uint256",
              "name": "deliveryPrice",
              "type": "uint256"
            },
            {
              "internalType": "enum ShippingContract.ShipmentStatus",
              "name": "status",
              "type": "uint8"
            },
            {
              "internalType": "bool",
              "name": "exists",
              "type": "bool"
            }
          ],
          "internalType": "struct ShippingContract.Shipment",
          "name": "",
          "type": "tuple"
        }
      ],
      "stateMutability": "view",
      "type": "function"
    },
    {
      "inputs": [
        {
          "internalType": "uint256",
          "name": "",
          "type": "uint256"
        }
      ],
      "name": "shipments",
      "outputs": [
        {
          "internalType": "address",
          "name": "seller",
          "type": "address"
        },
        {
          "internalType": "address",
          "name": "buyer",
          "type": "address"
        },
        {
          "internalType": "address",
          "name": "courier",
          "type": "address"
        },
        {
          "internalType": "uint256",
          "name": "creationTime",
          "type": "uint256"
        },
        {
          "internalType": "uint256",
          "name": "deliveryPrice",
          "type": "uint256"
        },
        {
          "internalType": "enum ShippingContract.ShipmentStatus",
          "name": "status",
          "type": "uint8"
        },
        {
          "internalType": "bool",
          "name": "exists",
          "type": "bool"
        }
      ],
      "stateMutability": "view",
      "type": "function"
    },
    {
      "inputs": [
        {
          "internalType": "uint256",
          "name": "shipmentId",
          "type": "uint256"
        },
        {
          "internalType": "enum ShippingContract.ShipmentStatus",
          "name": "_status",
          "type": "uint8"
        }
      ],
      "name": "updateStatus",
      "outputs": [],
      "stateMutability": "nonpayable",
      "type": "function"
    }
  ],
  "bytecode": "0x608060405234801561001057600080fd5b506115ac806100206000396000f3fe6080604052600436106100555760003560e01c8063092b37401461005a5780632ac08a93146100975780633a1b3d31146100da57806374bca13f146101035780637faa7bc71461011f578063fd84cb9714610148575b600080fd5b34801561006657600080fd5b50610081600480360381019061007c9190610e7d565b610171565b60405161008e919061101a565b60405180910390f35b3480156100a357600080fd5b506100be60048036038101906100b99190610e7d565b61036b565b6040516100d19796959493929190611071565b60405180910390f35b3480156100e657600080fd5b5061010160048036038101906100fc9190611105565b610427565b005b61011d60048036038101906101189190611171565b610663565b005b34801561012b57600080fd5b5061014660048036038101906101419190610e7d565b6108ee565b005b34801561015457600080fd5b5061016f600480360381019061016a9190610e7d565b610bf1565b005b610179610daf565b60008083815260200190815260200160002060050160019054906101000a900460ff166101db576040517f08c379a00000000000000000000000000000000000000000000000000000000081526004016101d290611221565b60405180910390fd5b6000808381526020019081526020016000206040518060e00160405290816000820160009054906101000a900473ffffffffffffffffffffffffffffffffffffffff1673ffffffffffffffffffffffffffffffffffffffff1673ffffffffffffffffffffffffffffffffffffffff1681526020016001820160009054906101000a900473ffffffffffffffffffffffffffffffffffffffff1673ffffffffffffffffffffffffffffffffffffffff1673ffffffffffffffffffffffffffffffffffffffff1681526020016002820160009054906101000a900473ffffffffffffffffffffffffffffffffffffffff1673ffffffffffffffffffffffffffffffffffffffff1673ffffffffffffffffffffffffffffffffffffffff16815260200160038201548152602001600482015481526020016005820160009054906101000a900460ff16600381111561033357610332610efa565b5b600381111561034557610344610efa565b5b81526020016005820160019054906101000a900460ff1615151515815250509050919050565b60006020528060005260406000206000915090508060000160009054906101000a900473ffffffffffffffffffffffffffffffffffffffff16908060010160009054906101000a900473ffffffffffffffffffffffffffffffffffffffff16908060020160009054906101000a900473ffffffffffffffffffffffffffffffffffffffff16908060030154908060040154908060050160009054906101000a900460ff16908060050160019054906101000a900460ff16905087565b60008083815260200190815260200160002060050160019054906101000a900460ff16610489576040517f08c379a000000000000000000000000000000000000000000000000000000000815260040161048090611221565b60405180910390fd5b60008083815260200190815260200160002060020160009054906101000a900473ffffffffffffffffffffffffffffffffffffffff1673ffffffffffffffffffffffffffffffffffffffff163373ffffffffffffffffffffffffffffffffffffffff161461052c576040517f08c379a00000000000000000000000000000000000000000000000000000000081526004016105239061128d565b60405180910390fd5b8060008084815260200190815260200160002060050160006101000a81548160ff0219169083600381111561056457610563610efa565b5b0217905550817f2da7b23ca63c1eb969eee5fae4acb98186abecf5358b0354a82a5183ebca6b2a8260405161059991906112ad565b60405180910390a2600260038111156105b5576105b4610efa565b5b8160038111156105c8576105c7610efa565b5b0361065f5760008083815260200190815260200160002060020160009054906101000a900473ffffffffffffffffffffffffffffffffffffffff1673ffffffffffffffffffffffffffffffffffffffff166108fc600080858152602001908152602001600020600401549081150290604051600060405180830381858888f1935050505015801561065d573d6000803e3d6000fd5b505b5050565b8034146106a5576040517f08c379a000000000000000000000000000000000000000000000000000000000815260040161069c90611314565b60405180910390fd5b600160008154809291906106b890611363565b91905055506040518060e001604052803373ffffffffffffffffffffffffffffffffffffffff1681526020018473ffffffffffffffffffffffffffffffffffffffff1681526020018373ffffffffffffffffffffffffffffffffffffffff1681526020014281526020018281526020016000600381111561073c5761073b610efa565b5b815260200160011515815250600080600154815260200190815260200160002060008201518160000160006101000a81548173ffffffffffffffffffffffffffffffffffffffff021916908373ffffffffffffffffffffffffffffffffffffffff16021790555060208201518160010160006101000a81548173ffffffffffffffffffffffffffffffffffffffff021916908373ffffffffffffffffffffffffffffffffffffffff16021790555060408201518160020160006101000a81548173ffffffffffffffffffffffffffffffffffffffff021916908373ffffffffffffffffffffffffffffffffffffffff160217905550606082015181600301556080820151816004015560a08201518160050160006101000a81548160ff021916908360038111156108705761086f610efa565b5b021790555060c08201518160050160016101000a81548160ff0219169083151502179055509050503373ffffffffffffffffffffffffffffffffffffffff166001547ffe0fd664b79935c18377297309c92f6abe60ccaa6d43bd30327c508c7fda080e856040516108e191906113ab565b60405180910390a3505050565b8060008082815260200190815260200160002060000160009054906101000a900473ffffffffffffffffffffffffffffffffffffffff1673ffffffffffffffffffffffffffffffffffffffff163373ffffffffffffffffffffffffffffffffffffffff1614806109be575060008082815260200190815260200160002060010160009054906101000a900473ffffffffffffffffffffffffffffffffffffffff1673ffffffffffffffffffffffffffffffffffffffff163373ffffffffffffffffffffffffffffffffffffffff16145b80610a29575060008082815260200190815260200160002060020160009054906101000a900473ffffffffffffffffffffffffffffffffffffffff1673ffffffffffffffffffffffffffffffffffffffff163373ffffffffffffffffffffffffffffffffffffffff16145b610a68576040517f08c379a0000000000000000000000000000000000000000000000000000000008152600401610a5f90611412565b60405180910390fd5b60006003811115610a7c57610a7b610efa565b5b60008084815260200190815260200160002060050160009054906101000a900460ff166003811115610ab157610ab0610efa565b5b14610af1576040517f08c379a0000000000000000000000000000000000000000000000000000000008152600401610ae89061147e565b60405180910390fd5b600360008084815260200190815260200160002060050160006101000a81548160ff02191690836003811115610b2a57610b29610efa565b5b021790555060008083815260200190815260200160002060010160009054906101000a900473ffffffffffffffffffffffffffffffffffffffff1673ffffffffffffffffffffffffffffffffffffffff166108fc600080858152602001908152602001600020600401549081150290604051600060405180830381858888f19350505050158015610bbf573d6000803e3d6000fd5b50817f6c369efdf73d335dd2773310e330a52db609150879cf9b2a1969b6eaf80b0e6260405160405180910390a25050565b60008082815260200190815260200160002060050160019054906101000a900460ff16610c53576040517f08c379a0000000000000000000000000000000000000000000000000000000008152600401610c4a90611221565b60405180910390fd5b60008082815260200190815260200160002060010160009054906101000a900473ffffffffffffffffffffffffffffffffffffffff1673ffffffffffffffffffffffffffffffffffffffff163373ffffffffffffffffffffffffffffffffffffffff1614610cf6576040517f08c379a0000000000000000000000000000000000000000000000000000000008152600401610ced906114ea565b60405180910390fd5b60026003811115610d0a57610d09610efa565b5b60008083815260200190815260200160002060050160009054906101000a900460ff166003811115610d3f57610d3e610efa565b5b14610d7f576040517f08c379a0000000000000000000000000000000000000000000000000000000008152600401610d7690611556565b60405180910390fd5b807f375b4005eeae25d0e37d56e1b3841d3bb394b277efa2548de3293f5dcb7a349360405160405180910390a250565b6040518060e00160405280600073ffffffffffffffffffffffffffffffffffffffff168152602001600073ffffffffffffffffffffffffffffffffffffffff168152602001600073ffffffffffffffffffffffffffffffffffffffff168152602001600081526020016000815260200160006003811115610e3357610e32610efa565b5b81526020016000151581525090565b600080fd5b6000819050919050565b610e5a81610e47565b8114610e6557600080fd5b50565b600081359050610e7781610e51565b92915050565b600060208284031215610e9357610e92610e42565b5b6000610ea184828501610e68565b91505092915050565b600073ffffffffffffffffffffffffffffffffffffffff82169050919050565b6000610ed582610eaa565b9050919050565b610ee581610eca565b82525050565b610ef481610e47565b82525050565b7f4e487b7100000000000000000000000000000000000000000000000000000000600052602160045260246000fd5b60048110610f3a57610f39610efa565b5b50565b6000819050610f4b82610f29565b919050565b6000610f5b82610f3d565b9050919050565b610f6b81610f50565b82525050565b60008115159050919050565b610f8681610f71565b82525050565b60e082016000820151610fa26000850182610edc565b506020820151610fb56020850182610edc565b506040820151610fc86040850182610edc565b506060820151610fdb6060850182610eeb565b506080820151610fee6080850182610eeb565b5060a082015161100160a0850182610f62565b5060c082015161101460c0850182610f7d565b50505050565b600060e08201905061102f6000830184610f8c565b92915050565b61103e81610eca565b82525050565b61104d81610e47565b82525050565b61105c81610f50565b82525050565b61106b81610f71565b82525050565b600060e082019050611086600083018a611035565b6110936020830189611035565b6110a06040830188611035565b6110ad6060830187611044565b6110ba6080830186611044565b6110c760a0830185611053565b6110d460c0830184611062565b98975050505050505050565b600481106110ed57600080fd5b50565b6000813590506110ff816110e0565b92915050565b6000806040838503121561111c5761111b610e42565b5b600061112a85828601610e68565b925050602061113b858286016110f0565b9150509250929050565b61114e81610eca565b811461115957600080fd5b50565b60008135905061116b81611145565b92915050565b60008060006060848603121561118a57611189610e42565b5b60006111988682870161115c565b93505060206111a98682870161115c565b92505060406111ba86828701610e68565b9150509250925092565b600082825260208201905092915050565b7f536869706d656e7420646f6573206e6f74206578697374000000000000000000600082015250565b600061120b6017836111c4565b9150611216826111d5565b602082019050919050565b6000602082019050818103600083015261123a816111fe565b9050919050565b7f4f6e6c7920636f75726965722063616e20757064617465207374617475730000600082015250565b6000611277601e836111c4565b915061128282611241565b602082019050919050565b600060208201905081810360008301526112a68161126a565b9050919050565b60006020820190506112c26000830184611053565b92915050565b7f496e636f7272656374207061796d656e7420616d6f756e740000000000000000600082015250565b60006112fe6018836111c4565b9150611309826112c8565b602082019050919050565b6000602082019050818103600083015261132d816112f1565b9050919050565b7f4e487b7100000000000000000000000000000000000000000000000000000000600052601160045260246000fd5b600061136e82610e47565b91507fffffffffffffffffffffffffffffffffffffffffffffffffffffffffffffffff82036113a05761139f611334565b5b600182019050919050565b60006020820190506113c06000830184611035565b92915050565b7f4e6f742061207061727469636970616e74000000000000000000000000000000600082015250565b60006113fc6011836111c4565b9150611407826113c6565b602082019050919050565b6000602082019050818103600083015261142b816113ef565b9050919050565b7f43616e6e6f742063616e63656c20736869706d656e7400000000000000000000600082015250565b60006114686016836111c4565b915061147382611432565b602082019050919050565b600060208201905081810360008301526114978161145b565b9050919050565b7f4f6e6c792062757965722063616e20636f6e6669726d2064656c697665727900600082015250565b60006114d4601f836111c4565b91506114df8261149e565b602082019050919050565b60006020820190508181036000830152611503816114c7565b9050919050565b7f536869706d656e74206e6f742064656c69766572656400000000000000000000600082015250565b60006115406016836111c4565b915061154b8261150a565b602082019050919050565b6000602082019050818103600083015261156f81611533565b905091905056fea2646970667358221220c8c96cf824462ff8cf8c964de6f0b072c96ac0a0d69f65cd0faf0b2a09a4a88364736f6c63430008130033",
  "linkReferences": {},
  "deployedLinkReferences": {}
}